{
  "_format": "hh-sol-artifact-1",
  "contractName": "Raffle",
  "sourceName": "contracts/Raffle.sol",
  "abi": [
    {
      "inputs": [
        {
          "internalType": "bytes21",
          "name": "_pbcContractAddress",
          "type": "bytes21"
        },
        {
          "internalType": "address[]",
          "name": "_computationNodes",
          "type": "address[]"
        }
      ],
      "stateMutability": "nonpayable",
      "type": "constructor"
    },
    {
      "inputs": [],
      "name": "ECDSAInvalidSignature",
      "type": "error"
    },
    {
      "inputs": [
        {
          "internalType": "uint256",
          "name": "length",
          "type": "uint256"
        }
      ],
      "name": "ECDSAInvalidSignatureLength",
      "type": "error"
    },
    {
      "inputs": [
        {
          "internalType": "bytes32",
          "name": "s",
          "type": "bytes32"
        }
      ],
      "name": "ECDSAInvalidSignatureS",
      "type": "error"
    },
    {
      "inputs": [
        {
          "internalType": "address",
          "name": "sender",
          "type": "address"
        },
        {
          "internalType": "uint256",
          "name": "tokenId",
          "type": "uint256"
        },
        {
          "internalType": "address",
          "name": "owner",
          "type": "address"
        }
      ],
      "name": "ERC721IncorrectOwner",
      "type": "error"
    },
    {
      "inputs": [
        {
          "internalType": "address",
          "name": "operator",
          "type": "address"
        },
        {
          "internalType": "uint256",
          "name": "tokenId",
          "type": "uint256"
        }
      ],
      "name": "ERC721InsufficientApproval",
      "type": "error"
    },
    {
      "inputs": [
        {
          "internalType": "address",
          "name": "approver",
          "type": "address"
        }
      ],
      "name": "ERC721InvalidApprover",
      "type": "error"
    },
    {
      "inputs": [
        {
          "internalType": "address",
          "name": "operator",
          "type": "address"
        }
      ],
      "name": "ERC721InvalidOperator",
      "type": "error"
    },
    {
      "inputs": [
        {
          "internalType": "address",
          "name": "owner",
          "type": "address"
        }
      ],
      "name": "ERC721InvalidOwner",
      "type": "error"
    },
    {
      "inputs": [
        {
          "internalType": "address",
          "name": "receiver",
          "type": "address"
        }
      ],
      "name": "ERC721InvalidReceiver",
      "type": "error"
    },
    {
      "inputs": [
        {
          "internalType": "address",
          "name": "sender",
          "type": "address"
        }
      ],
      "name": "ERC721InvalidSender",
      "type": "error"
    },
    {
      "inputs": [
        {
          "internalType": "uint256",
          "name": "tokenId",
          "type": "uint256"
        }
      ],
      "name": "ERC721NonexistentToken",
      "type": "error"
    },
    {
      "inputs": [
        {
          "internalType": "address",
          "name": "owner",
          "type": "address"
        }
      ],
      "name": "OwnableInvalidOwner",
      "type": "error"
    },
    {
      "inputs": [
        {
          "internalType": "address",
          "name": "account",
          "type": "address"
        }
      ],
      "name": "OwnableUnauthorizedAccount",
      "type": "error"
    },
    {
      "anonymous": false,
      "inputs": [
        {
          "indexed": true,
          "internalType": "address",
          "name": "owner",
          "type": "address"
        },
        {
          "indexed": true,
          "internalType": "address",
          "name": "approved",
          "type": "address"
        },
        {
          "indexed": true,
          "internalType": "uint256",
          "name": "tokenId",
          "type": "uint256"
        }
      ],
      "name": "Approval",
      "type": "event"
    },
    {
      "anonymous": false,
      "inputs": [
        {
          "indexed": true,
          "internalType": "address",
          "name": "owner",
          "type": "address"
        },
        {
          "indexed": true,
          "internalType": "address",
          "name": "operator",
          "type": "address"
        },
        {
          "indexed": false,
          "internalType": "bool",
          "name": "approved",
          "type": "bool"
        }
      ],
      "name": "ApprovalForAll",
      "type": "event"
    },
    {
      "anonymous": false,
      "inputs": [
        {
          "indexed": false,
          "internalType": "uint256",
          "name": "_fromTokenId",
          "type": "uint256"
        },
        {
          "indexed": false,
          "internalType": "uint256",
          "name": "_toTokenId",
          "type": "uint256"
        }
      ],
      "name": "BatchMetadataUpdate",
      "type": "event"
    },
    {
      "anonymous": false,
      "inputs": [
        {
          "indexed": false,
          "internalType": "address",
          "name": "user",
          "type": "address"
        },
        {
          "indexed": false,
          "internalType": "uint256",
          "name": "index",
          "type": "uint256"
        }
      ],
      "name": "ClaimNFT",
      "type": "event"
    },
    {
      "anonymous": false,
      "inputs": [
        {
          "indexed": false,
          "internalType": "uint256",
          "name": "_tokenId",
          "type": "uint256"
        }
      ],
      "name": "MetadataUpdate",
      "type": "event"
    },
    {
      "anonymous": false,
      "inputs": [
        {
          "indexed": true,
          "internalType": "address",
          "name": "previousOwner",
          "type": "address"
        },
        {
          "indexed": true,
          "internalType": "address",
          "name": "newOwner",
          "type": "address"
        }
      ],
      "name": "OwnershipTransferred",
      "type": "event"
    },
    {
      "anonymous": false,
      "inputs": [
        {
          "indexed": false,
          "internalType": "uint256",
          "name": "_winners",
          "type": "uint256"
        },
        {
          "indexed": false,
          "internalType": "uint64[]",
          "name": "values",
          "type": "uint64[]"
        }
      ],
      "name": "RaffleEnd",
      "type": "event"
    },
    {
      "anonymous": false,
      "inputs": [
        {
          "indexed": false,
          "internalType": "string",
          "name": "tokenUri",
          "type": "string"
        }
      ],
      "name": "RaffleStart",
      "type": "event"
    },
    {
      "anonymous": false,
      "inputs": [
        {
          "indexed": true,
          "internalType": "address",
          "name": "from",
          "type": "address"
        },
        {
          "indexed": true,
          "internalType": "address",
          "name": "to",
          "type": "address"
        },
        {
          "indexed": true,
          "internalType": "uint256",
          "name": "tokenId",
          "type": "uint256"
        }
      ],
      "name": "Transfer",
      "type": "event"
    },
    {
      "inputs": [
        {
          "internalType": "string",
          "name": "data",
          "type": "string"
        }
      ],
      "name": "_getMessageHash",
      "outputs": [
        {
          "internalType": "string",
          "name": "",
          "type": "string"
        }
      ],
      "stateMutability": "pure",
      "type": "function"
    },
    {
      "inputs": [],
      "name": "_merkleRoot",
      "outputs": [
        {
          "internalType": "bytes32",
          "name": "",
          "type": "bytes32"
        }
      ],
      "stateMutability": "view",
      "type": "function"
    },
    {
      "inputs": [],
      "name": "_mintCount",
      "outputs": [
        {
          "internalType": "uint256",
          "name": "",
          "type": "uint256"
        }
      ],
      "stateMutability": "view",
      "type": "function"
    },
    {
      "inputs": [],
      "name": "_minted",
      "outputs": [
        {
          "internalType": "uint256",
          "name": "",
          "type": "uint256"
        }
      ],
      "stateMutability": "view",
      "type": "function"
    },
    {
      "inputs": [],
      "name": "_tokenIds",
      "outputs": [
        {
          "internalType": "uint256",
          "name": "",
          "type": "uint256"
        }
      ],
      "stateMutability": "view",
      "type": "function"
    },
    {
      "inputs": [],
      "name": "_totalCount",
      "outputs": [
        {
          "internalType": "uint256",
          "name": "",
          "type": "uint256"
        }
      ],
      "stateMutability": "view",
      "type": "function"
    },
    {
      "inputs": [],
      "name": "_winners",
      "outputs": [
        {
          "internalType": "uint256",
          "name": "",
          "type": "uint256"
        }
      ],
      "stateMutability": "view",
      "type": "function"
    },
    {
      "inputs": [
        {
          "internalType": "address",
          "name": "to",
          "type": "address"
        },
        {
          "internalType": "uint256",
          "name": "tokenId",
          "type": "uint256"
        }
      ],
      "name": "approve",
      "outputs": [],
      "stateMutability": "nonpayable",
      "type": "function"
    },
    {
      "inputs": [
        {
          "internalType": "address",
          "name": "owner",
          "type": "address"
        }
      ],
      "name": "balanceOf",
      "outputs": [
        {
          "internalType": "uint256",
          "name": "",
          "type": "uint256"
        }
      ],
      "stateMutability": "view",
      "type": "function"
    },
    {
      "inputs": [
        {
          "internalType": "uint64[]",
          "name": "values",
          "type": "uint64[]"
        },
        {
          "internalType": "uint64",
          "name": "minValue",
          "type": "uint64"
        },
        {
          "internalType": "uint64",
          "name": "maxValue",
          "type": "uint64"
        },
        {
          "internalType": "uint256",
          "name": "rngTimestamp",
          "type": "uint256"
        },
        {
          "internalType": "bytes[]",
          "name": "_proofOfResult",
          "type": "bytes[]"
        },
        {
          "internalType": "bytes32",
          "name": "merkleRoot",
          "type": "bytes32"
        }
      ],
      "name": "calculateRaffle",
      "outputs": [],
      "stateMutability": "nonpayable",
      "type": "function"
    },
    {
      "inputs": [
        {
          "internalType": "bytes",
          "name": "signature",
          "type": "bytes"
        },
        {
          "internalType": "uint256",
          "name": "index",
          "type": "uint256"
        },
        {
          "internalType": "bytes32",
          "name": "merkleRoot",
          "type": "bytes32"
        },
        {
          "internalType": "bytes32[]",
          "name": "merkleProof",
          "type": "bytes32[]"
        }
      ],
      "name": "checkProof",
      "outputs": [],
      "stateMutability": "pure",
      "type": "function"
    },
    {
      "inputs": [
        {
          "internalType": "uint256",
          "name": "index",
          "type": "uint256"
        },
        {
          "internalType": "bytes",
          "name": "signature",
          "type": "bytes"
        },
        {
          "internalType": "string",
          "name": "data",
          "type": "string"
        },
        {
          "internalType": "address",
          "name": "to",
          "type": "address"
        },
        {
          "internalType": "bytes32[]",
          "name": "merkleProof",
          "type": "bytes32[]"
        }
      ],
      "name": "claimToken",
      "outputs": [],
      "stateMutability": "nonpayable",
      "type": "function"
    },
    {
      "inputs": [
        {
          "internalType": "uint256",
          "name": "",
          "type": "uint256"
        }
      ],
      "name": "computationNodes",
      "outputs": [
        {
          "internalType": "address",
          "name": "",
          "type": "address"
        }
      ],
      "stateMutability": "view",
      "type": "function"
    },
    {
      "inputs": [
        {
          "internalType": "uint64[]",
          "name": "values",
          "type": "uint64[]"
        },
        {
          "internalType": "uint64",
          "name": "minValue",
          "type": "uint64"
        },
        {
          "internalType": "uint64",
          "name": "maxValue",
          "type": "uint64"
        },
        {
          "internalType": "uint256",
          "name": "timestamp",
          "type": "uint256"
        },
        {
          "internalType": "bytes32",
          "name": "merkleRoot",
          "type": "bytes32"
        }
      ],
      "name": "computeRngDigest",
      "outputs": [
        {
          "internalType": "bytes32",
          "name": "",
          "type": "bytes32"
        }
      ],
      "stateMutability": "view",
      "type": "function"
    },
    {
      "inputs": [
        {
          "internalType": "uint256",
          "name": "tokenId",
          "type": "uint256"
        }
      ],
      "name": "getApproved",
      "outputs": [
        {
          "internalType": "address",
          "name": "",
          "type": "address"
        }
      ],
      "stateMutability": "view",
      "type": "function"
    },
    {
      "inputs": [
        {
          "internalType": "string",
          "name": "message",
          "type": "string"
        },
        {
          "internalType": "string",
          "name": "length",
          "type": "string"
        }
      ],
      "name": "getEthHash",
      "outputs": [
        {
          "internalType": "bytes32",
          "name": "",
          "type": "bytes32"
        }
      ],
      "stateMutability": "pure",
      "type": "function"
    },
    {
      "inputs": [
        {
          "internalType": "address",
          "name": "owner",
          "type": "address"
        },
        {
          "internalType": "address",
          "name": "operator",
          "type": "address"
        }
      ],
      "name": "isApprovedForAll",
      "outputs": [
        {
          "internalType": "bool",
          "name": "",
          "type": "bool"
        }
      ],
      "stateMutability": "view",
      "type": "function"
    },
    {
      "inputs": [],
      "name": "isRaffleStarted",
      "outputs": [
        {
          "internalType": "bool",
          "name": "",
          "type": "bool"
        }
      ],
      "stateMutability": "view",
      "type": "function"
    },
    {
      "inputs": [],
      "name": "name",
      "outputs": [
        {
          "internalType": "string",
          "name": "",
          "type": "string"
        }
      ],
      "stateMutability": "view",
      "type": "function"
    },
    {
      "inputs": [],
      "name": "owner",
      "outputs": [
        {
          "internalType": "address",
          "name": "",
          "type": "address"
        }
      ],
      "stateMutability": "view",
      "type": "function"
    },
    {
      "inputs": [
        {
          "internalType": "uint256",
          "name": "tokenId",
          "type": "uint256"
        }
      ],
      "name": "ownerOf",
      "outputs": [
        {
          "internalType": "address",
          "name": "",
          "type": "address"
        }
      ],
      "stateMutability": "view",
      "type": "function"
    },
    {
      "inputs": [],
      "name": "privateVotingPbcAddress",
      "outputs": [
        {
          "internalType": "bytes21",
          "name": "",
          "type": "bytes21"
        }
      ],
      "stateMutability": "view",
      "type": "function"
    },
    {
      "inputs": [],
      "name": "renounceOwnership",
      "outputs": [],
      "stateMutability": "nonpayable",
      "type": "function"
    },
    {
      "inputs": [
        {
          "internalType": "bytes21",
          "name": "_pbcContractAddress",
          "type": "bytes21"
        },
        {
          "internalType": "address[]",
          "name": "_computationNodes",
          "type": "address[]"
        }
      ],
      "name": "resetPbcValues",
      "outputs": [],
      "stateMutability": "nonpayable",
      "type": "function"
    },
    {
      "inputs": [
        {
          "internalType": "address",
          "name": "from",
          "type": "address"
        },
        {
          "internalType": "address",
          "name": "to",
          "type": "address"
        },
        {
          "internalType": "uint256",
          "name": "tokenId",
          "type": "uint256"
        }
      ],
      "name": "safeTransferFrom",
      "outputs": [],
      "stateMutability": "nonpayable",
      "type": "function"
    },
    {
      "inputs": [
        {
          "internalType": "address",
          "name": "from",
          "type": "address"
        },
        {
          "internalType": "address",
          "name": "to",
          "type": "address"
        },
        {
          "internalType": "uint256",
          "name": "tokenId",
          "type": "uint256"
        },
        {
          "internalType": "bytes",
          "name": "data",
          "type": "bytes"
        }
      ],
      "name": "safeTransferFrom",
      "outputs": [],
      "stateMutability": "nonpayable",
      "type": "function"
    },
    {
      "inputs": [
        {
          "internalType": "address",
          "name": "operator",
          "type": "address"
        },
        {
          "internalType": "bool",
          "name": "approved",
          "type": "bool"
        }
      ],
      "name": "setApprovalForAll",
      "outputs": [],
      "stateMutability": "nonpayable",
      "type": "function"
    },
    {
      "inputs": [
        {
          "internalType": "string",
          "name": "uri",
          "type": "string"
        }
      ],
      "name": "startRaffe",
      "outputs": [],
      "stateMutability": "nonpayable",
      "type": "function"
    },
    {
      "inputs": [
        {
          "internalType": "bytes4",
          "name": "interfaceId",
          "type": "bytes4"
        }
      ],
      "name": "supportsInterface",
      "outputs": [
        {
          "internalType": "bool",
          "name": "",
          "type": "bool"
        }
      ],
      "stateMutability": "view",
      "type": "function"
    },
    {
      "inputs": [],
      "name": "symbol",
      "outputs": [
        {
          "internalType": "string",
          "name": "",
          "type": "string"
        }
      ],
      "stateMutability": "view",
      "type": "function"
    },
    {
      "inputs": [
        {
          "internalType": "bytes32",
          "name": "data",
          "type": "bytes32"
        }
      ],
      "name": "toHex",
      "outputs": [
        {
          "internalType": "string",
          "name": "",
          "type": "string"
        }
      ],
      "stateMutability": "pure",
      "type": "function"
    },
    {
      "inputs": [
        {
          "internalType": "bytes32",
          "name": "data",
          "type": "bytes32"
        }
      ],
      "name": "toHexWithPrefix",
      "outputs": [
        {
          "internalType": "string",
          "name": "",
          "type": "string"
        }
      ],
      "stateMutability": "pure",
      "type": "function"
    },
    {
      "inputs": [
        {
          "internalType": "uint256",
          "name": "tokenId",
          "type": "uint256"
        }
      ],
      "name": "tokenURI",
      "outputs": [
        {
          "internalType": "string",
          "name": "",
          "type": "string"
        }
      ],
      "stateMutability": "view",
      "type": "function"
    },
    {
      "inputs": [],
      "name": "tokenUri",
      "outputs": [
        {
          "internalType": "string",
          "name": "",
          "type": "string"
        }
      ],
      "stateMutability": "view",
      "type": "function"
    },
    {
      "inputs": [
        {
          "internalType": "address",
          "name": "from",
          "type": "address"
        },
        {
          "internalType": "address",
          "name": "to",
          "type": "address"
        },
        {
          "internalType": "uint256",
          "name": "tokenId",
          "type": "uint256"
        }
      ],
      "name": "transferFrom",
      "outputs": [],
      "stateMutability": "nonpayable",
      "type": "function"
    },
    {
      "inputs": [
        {
          "internalType": "address",
          "name": "newOwner",
          "type": "address"
        }
      ],
      "name": "transferOwnership",
      "outputs": [],
      "stateMutability": "nonpayable",
      "type": "function"
    },
    {
      "inputs": [
        {
          "internalType": "address",
          "name": "signer",
          "type": "address"
        },
        {
          "internalType": "string",
          "name": "data",
          "type": "string"
        },
        {
          "internalType": "bytes",
          "name": "signature",
          "type": "bytes"
        }
      ],
      "name": "verifySignature",
      "outputs": [
        {
          "internalType": "bool",
          "name": "",
          "type": "bool"
        }
      ],
      "stateMutability": "pure",
      "type": "function"
    }
  ],
  "bytecode": "0x60806040523480156200001157600080fd5b5060405162006420380380620064208339818101604052810190620000379190620005c2565b336040518060400160405280600a81526020017f4e6674466163746f7279000000000000000000000000000000000000000000008152506040518060400160405280600481526020017f4e465431000000000000000000000000000000000000000000000000000000008152508160009081620000b5919062000873565b508060019081620000c7919062000873565b505050600073ffffffffffffffffffffffffffffffffffffffff168173ffffffffffffffffffffffffffffffffffffffff16036200013f5760006040517f1e4fbdf70000000000000000000000000000000000000000000000000000000081526004016200013691906200096b565b60405180910390fd5b62000150816200020360201b60201c565b5081600960006101000a81548174ffffffffffffffffffffffffffffffffffffffffff021916908360581c02179055506004815114620001c7576040517f08c379a0000000000000000000000000000000000000000000000000000000008152600401620001be90620009e9565b60405180910390fd5b80600a9080519060200190620001df929190620002c9565b506000600c60006101000a81548160ff021916908315150217905550505062000a0b565b6000600760009054906101000a900473ffffffffffffffffffffffffffffffffffffffff16905081600760006101000a81548173ffffffffffffffffffffffffffffffffffffffff021916908373ffffffffffffffffffffffffffffffffffffffff1602179055508173ffffffffffffffffffffffffffffffffffffffff168173ffffffffffffffffffffffffffffffffffffffff167f8be0079c531659141344cd1fd0a4f28419497f9722a3daafe3b4186f6b6457e060405160405180910390a35050565b82805482825590600052602060002090810192821562000345579160200282015b82811115620003445782518260006101000a81548173ffffffffffffffffffffffffffffffffffffffff021916908373ffffffffffffffffffffffffffffffffffffffff16021790555091602001919060010190620002ea565b5b50905062000354919062000358565b5090565b5b808211156200037357600081600090555060010162000359565b5090565b6000604051905090565b600080fd5b600080fd5b60007fffffffffffffffffffffffffffffffffffffffffff000000000000000000000082169050919050565b620003c2816200038b565b8114620003ce57600080fd5b50565b600081519050620003e281620003b7565b92915050565b600080fd5b6000601f19601f8301169050919050565b7f4e487b7100000000000000000000000000000000000000000000000000000000600052604160045260246000fd5b6200043882620003ed565b810181811067ffffffffffffffff821117156200045a5762000459620003fe565b5b80604052505050565b60006200046f62000377565b90506200047d82826200042d565b919050565b600067ffffffffffffffff821115620004a0576200049f620003fe565b5b602082029050602081019050919050565b600080fd5b600073ffffffffffffffffffffffffffffffffffffffff82169050919050565b6000620004e382620004b6565b9050919050565b620004f581620004d6565b81146200050157600080fd5b50565b6000815190506200051581620004ea565b92915050565b6000620005326200052c8462000482565b62000463565b90508083825260208201905060208402830185811115620005585762000557620004b1565b5b835b8181101562000585578062000570888262000504565b8452602084019350506020810190506200055a565b5050509392505050565b600082601f830112620005a757620005a6620003e8565b5b8151620005b98482602086016200051b565b91505092915050565b60008060408385031215620005dc57620005db62000381565b5b6000620005ec85828601620003d1565b925050602083015167ffffffffffffffff81111562000610576200060f62000386565b5b6200061e858286016200058f565b9150509250929050565b600081519050919050565b7f4e487b7100000000000000000000000000000000000000000000000000000000600052602260045260246000fd5b600060028204905060018216806200067b57607f821691505b60208210810362000691576200069062000633565b5b50919050565b60008190508160005260206000209050919050565b60006020601f8301049050919050565b600082821b905092915050565b600060088302620006fb7fffffffffffffffffffffffffffffffffffffffffffffffffffffffffffffffff82620006bc565b620007078683620006bc565b95508019841693508086168417925050509392505050565b6000819050919050565b6000819050919050565b6000620007546200074e62000748846200071f565b62000729565b6200071f565b9050919050565b6000819050919050565b620007708362000733565b620007886200077f826200075b565b848454620006c9565b825550505050565b600090565b6200079f62000790565b620007ac81848462000765565b505050565b5b81811015620007d457620007c860008262000795565b600181019050620007b2565b5050565b601f8211156200082357620007ed8162000697565b620007f884620006ac565b8101602085101562000808578190505b620008206200081785620006ac565b830182620007b1565b50505b505050565b600082821c905092915050565b6000620008486000198460080262000828565b1980831691505092915050565b600062000863838362000835565b9150826002028217905092915050565b6200087e8262000628565b67ffffffffffffffff8111156200089a5762000899620003fe565b5b620008a6825462000662565b620008b3828285620007d8565b600060209050601f831160018114620008eb5760008415620008d6578287015190505b620008e2858262000855565b86555062000952565b601f198416620008fb8662000697565b60005b828110156200092557848901518255600182019150602085019450602081019050620008fe565b8683101562000945578489015162000941601f89168262000835565b8355505b6001600288020188555050505b505050505050565b6200096581620004d6565b82525050565b60006020820190506200098260008301846200095a565b92915050565b600082825260208201905092915050565b7f496e76616c696420636f6d7075746174696f6e206e6f646520636f756e740000600082015250565b6000620009d1601e8362000988565b9150620009de8262000999565b602082019050919050565b6000602082019050818103600083015262000a0481620009c2565b9050919050565b615a058062000a1b6000396000f3fe608060405234801561001057600080fd5b50600436106102275760003560e01c806370a0823111610130578063b88d4fde116100b8578063eab26b911161007c578063eab26b911461069e578063ebbb8fde146106bc578063f2fde38b146106ec578063f765bcc414610708578063f8fd20051461072657610227565b8063b88d4fde146105e8578063c87b56dd14610604578063ce82e79414610634578063e47c3fb314610652578063e985e9c51461066e57610227565b806395d89b41116100ff57806395d89b4114610530578063a22cb4651461054e578063a62a9e841461056a578063aa46a4001461059a578063b5101358146105b857610227565b806370a08231146104bc578063715018a6146104ec578063834d8a53146104f65780638da5cb5b1461051257610227565b80633d7b313e116101b35780634e702207116101825780634e702207146103f4578063533dcca4146104105780635e5d32e7146104405780636352211e146104705780636ad13861146104a057610227565b80633d7b313e1461036c57806342842e0e1461038a57806344d68d33146103a657806349e894d8146103c457610227565b8063174dd224116101fa578063174dd224146102c657806323b872dd146102f65780632c19b7f3146103125780632fc37ab214610330578063355e0c5d1461034e57610227565b806301ffc9a71461022c57806306fdde031461025c578063081812fc1461027a578063095ea7b3146102aa575b600080fd5b61024660048036038101906102419190613879565b610742565b60405161025391906138c1565b60405180910390f35b6102646107a3565b604051610271919061396c565b60405180910390f35b610294600480360381019061028f91906139c4565b610835565b6040516102a19190613a32565b60405180910390f35b6102c460048036038101906102bf9190613a79565b610851565b005b6102e060048036038101906102db9190613b94565b610867565b6040516102ed9190613c3d565b60405180910390f35b610310600480360381019061030b9190613c58565b610ae8565b005b61031a610bea565b6040516103279190613cba565b60405180910390f35b610338610bf0565b6040516103459190613c3d565b60405180910390f35b610356610bf6565b604051610363919061396c565b60405180910390f35b610374610c84565b6040516103819190613cba565b60405180910390f35b6103a4600480360381019061039f9190613c58565b610c8a565b005b6103ae610caa565b6040516103bb9190613d10565b60405180910390f35b6103de60048036038101906103d99190613d2b565b610cbd565b6040516103eb919061396c565b60405180910390f35b61040e60048036038101906104099190613e04565b610cfc565b005b61042a60048036038101906104259190613f01565b610ddb565b60405161043791906138c1565b60405180910390f35b61045a60048036038101906104559190613d2b565b610f70565b604051610467919061396c565b60405180910390f35b61048a600480360381019061048591906139c4565b610faf565b6040516104979190613a32565b60405180910390f35b6104ba60048036038101906104b59190614100565b610fc1565b005b6104d660048036038101906104d1919061415c565b611013565b6040516104e39190613cba565b60405180910390f35b6104f46110cd565b005b610510600480360381019061050b9190614189565b6110e1565b005b61051a6112d7565b6040516105279190613a32565b60405180910390f35b610538611301565b604051610545919061396c565b60405180910390f35b61056860048036038101906105639190614291565b611393565b005b610584600480360381019061057f91906142d1565b6113a9565b604051610591919061396c565b60405180910390f35b6105a26113ec565b6040516105af9190613cba565b60405180910390f35b6105d260048036038101906105cd91906143d3565b6113f2565b6040516105df9190613c3d565b60405180910390f35b61060260048036038101906105fd91906144ec565b611467565b005b61061e600480360381019061061991906139c4565b611484565b60405161062b919061396c565b60405180910390f35b61063c611597565b60405161064991906138c1565b60405180910390f35b61066c600480360381019061066791906145c5565b6115aa565b005b61068860048036038101906106839190614694565b611960565b60405161069591906138c1565b60405180910390f35b6106a66119f4565b6040516106b39190613cba565b60405180910390f35b6106d660048036038101906106d191906139c4565b6119fa565b6040516106e39190613a32565b60405180910390f35b6107066004803603810190610701919061415c565b611a39565b005b610710611abf565b60405161071d9190613cba565b60405180910390f35b610740600480360381019061073b91906142d1565b611ac5565b005b6000634906490660e01b7bffffffffffffffffffffffffffffffffffffffffffffffffffffffff1916827bffffffffffffffffffffffffffffffffffffffffffffffffffffffff1916148061079c575061079b82611b56565b5b9050919050565b6060600080546107b290614703565b80601f01602080910402602001604051908101604052809291908181526020018280546107de90614703565b801561082b5780601f106108005761010080835404028352916020019161082b565b820191906000526020600020905b81548152906001019060200180831161080e57829003601f168201915b5050505050905090565b600061084082611c38565b5061084a82611cc0565b9050919050565b610863828261085e611cfd565b611d05565b5050565b6000808787905090506000838767ffffffffffffffff168767ffffffffffffffff168463ffffffff166040516020016108a39493929190614776565b60405160208183030381529060405280519060200120905060006108ce6108c983610cbd565b611d17565b90506108d981611ecf565b6108e38151611f68565b6060806040516020016108f69190614862565b604051602081830303815290604052905080600960009054906101000a900460581b6040516020016109299291906148a5565b6040516020818303038152906040529050808460405160200161094d929190614913565b604051602081830303815290604052905060005b8b8b90508110156109ca57818c8c838181106109805761097f61493b565b5b9050602002016020810190610995919061496a565b6040516020016109a69291906149cd565b604051602081830303815290604052915080806109c290614a24565b915050610961565b5080896040516020016109de9291906149cd565b60405160208183030381529060405290508088604051602001610a029291906149cd565b60405160208183030381529060405290508087604051602001610a269291906149cd565b60405160208183030381529060405290508060408051602001610a4a929190614913565b60405160208183030381529060405290508082604051602001610a6e929190614a9d565b6040516020818303038152906040529050610a8881612001565b600281604051610a989190614ac1565b602060405180830381855afa158015610ab5573d6000803e3d6000fd5b5050506040513d601f19601f82011682018060405250810190610ad89190614aed565b9450505050509695505050505050565b600073ffffffffffffffffffffffffffffffffffffffff168273ffffffffffffffffffffffffffffffffffffffff1603610b5a5760006040517f64a0ae92000000000000000000000000000000000000000000000000000000008152600401610b519190613a32565b60405180910390fd5b6000610b6e8383610b69611cfd565b61209a565b90508373ffffffffffffffffffffffffffffffffffffffff168173ffffffffffffffffffffffffffffffffffffffff1614610be4578382826040517f64283d7b000000000000000000000000000000000000000000000000000000008152600401610bdb93929190614b1a565b60405180910390fd5b50505050565b600f5481565b600d5481565b600b8054610c0390614703565b80601f0160208091040260200160405190810160405280929190818152602001828054610c2f90614703565b8015610c7c5780601f10610c5157610100808354040283529160200191610c7c565b820191906000526020600020905b815481529060010190602001808311610c5f57829003601f168201915b505050505081565b60105481565b610ca583838360405180602001604052806000815250611467565b505050565b600960009054906101000a900460581b81565b6060610cc8826122b4565b610cd5608084901b6122b4565b604051602001610ce6929190614b51565b6040516020818303038152906040529050919050565b6000801b8303610d41576040517f08c379a0000000000000000000000000000000000000000000000000000000008152600401610d3890614bc9565b60405180910390fd5b6000868686604051602001610d5893929190614c0e565b604051602081830303815290604052805190602001209050610d81610d7c82610f70565b611ecf565b6000610d8f84848785612514565b905080610dd1576040517f08c379a0000000000000000000000000000000000000000000000000000000008152600401610dc890614c84565b60405180910390fd5b5050505050505050565b600080610de886866113a9565b9050610e296040518060400160405280600981526020017f646174615f6861736800000000000000000000000000000000000000000000008152508261252d565b6000610e6a826040518060400160405280600281526020017f36360000000000000000000000000000000000000000000000000000000000008152506113f2565b9050610e85610e80610e7b83610cbd565b611d17565b611ecf565b6000806000610ed788888080601f016020809104026020016040519081016040528093929190818152602001838380828437600081840152601f19601f820116905080830192505050505050506125c9565b925092509250600060018583868660405160008152602001604052604051610f029493929190614cc0565b6020604051602081039080840390855afa158015610f24573d6000803e3d6000fd5b5050506020604051035190508b73ffffffffffffffffffffffffffffffffffffffff168173ffffffffffffffffffffffffffffffffffffffff1614965050505050505095945050505050565b6060610f7b826122b4565b610f88608084901b6122b4565b604051602001610f99929190614d51565b6040516020818303038152906040529050919050565b6000610fba82611c38565b9050919050565b610fc9612631565b81600960006101000a81548174ffffffffffffffffffffffffffffffffffffffffff021916908360581c021790555080600a908051906020019061100e92919061375c565b505050565b60008073ffffffffffffffffffffffffffffffffffffffff168273ffffffffffffffffffffffffffffffffffffffff16036110865760006040517f89c62b6400000000000000000000000000000000000000000000000000000000815260040161107d9190613a32565b60405180910390fd5b600360008373ffffffffffffffffffffffffffffffffffffffff1673ffffffffffffffffffffffffffffffffffffffff168152602001908152602001600020549050919050565b6110d5612631565b6110df60006126b8565b565b6000886001901b600e54161161112c576040517f08c379a000000000000000000000000000000000000000000000000000000000815260040161112390614dd4565b60405180910390fd5b6000886001901b600f541614611177576040517f08c379a000000000000000000000000000000000000000000000000000000000815260040161116e90614e40565b60405180910390fd5b6111848386868a8a610ddb565b6111c3576040517f08c379a00000000000000000000000000000000000000000000000000000000081526004016111ba90614eac565b60405180910390fd5b6111d387878a600d548686610cfc565b876001901b600f5417600f819055506000601054905060016010546111f89190614ecc565b60108190555061129284600b805461120f90614703565b80601f016020809104026020016040519081016040528092919081815260200182805461123b90614703565b80156112885780601f1061125d57610100808354040283529160200191611288565b820191906000526020600020905b81548152906001019060200180831161126b57829003601f168201915b505050505061277e565b507f20546ab55898ae09a1d99e40f77c3c46313eabfd4963962436180dbbf525061084826040516112c4929190614f00565b60405180910390a1505050505050505050565b6000600760009054906101000a900473ffffffffffffffffffffffffffffffffffffffff16905090565b60606001805461131090614703565b80601f016020809104026020016040519081016040528092919081815260200182805461133c90614703565b80156113895780601f1061135e57610100808354040283529160200191611389565b820191906000526020600020905b81548152906001019060200180831161136c57829003601f168201915b5050505050905090565b6113a561139e611cfd565b83836127b9565b5050565b60606113e46113df84846040516020016113c4929190614f4e565b60405160208183030381529060405280519060200120610f70565b611d17565b905092915050565b60085481565b6000806040518060400160405280601a81526020017f19457468657265756d205369676e6564204d6573736167653a0a0000000000008152509050600081848660405160200161144493929190614f67565b604051602081830303815290604052805190602001209050809250505092915050565b611472848484610ae8565b61147e84848484612928565b50505050565b606061148f82611c38565b5060006006600084815260200190815260200160002080546114b090614703565b80601f01602080910402602001604051908101604052809291908181526020018280546114dc90614703565b80156115295780601f106114fe57610100808354040283529160200191611529565b820191906000526020600020905b81548152906001019060200180831161150c57829003601f168201915b50505050509050600061153a612adf565b9050600081510361154f578192505050611592565b60008251111561158457808260405160200161156c929190614f98565b60405160208183030381529060405292505050611592565b61158d84612af6565b925050505b919050565b600c60009054906101000a900460ff1681565b60011515600c60009054906101000a900460ff16151514611600576040517f08c379a00000000000000000000000000000000000000000000000000000000081526004016115f790615008565b60405180910390fd5b60008667ffffffffffffffff161461164d576040517f08c379a000000000000000000000000000000000000000000000000000000000815260040161164490615074565b60405180910390fd5b80600d819055506004838390501461169a576040517f08c379a0000000000000000000000000000000000000000000000000000000008152600401611691906150e0565b60405180910390fd5b60006116aa898989898987610867565b905060005b60048163ffffffff1610156118905736600086868463ffffffff168181106116da576116d961493b565b5b90506020028101906116ec919061510f565b9150915061177c6040518060400160405280600781526020017f7265636f766572000000000000000000000000000000000000000000000000008152506117778685858080601f016020809104026020016040519081016040528093929190818152602001838380828437600081840152601f19601f82011690508083019250505050505050612b5f565b612b8b565b6117ca8483838080601f016020809104026020016040519081016040528093929190818152602001838380828437600081840152601f19601f82011690508083019250505050505050612b5f565b73ffffffffffffffffffffffffffffffffffffffff16600a8463ffffffff16815481106117fa576117f961493b565b5b9060005260206000200160009054906101000a900473ffffffffffffffffffffffffffffffffffffffff1673ffffffffffffffffffffffffffffffffffffffff161461187b576040517f08c379a0000000000000000000000000000000000000000000000000000000008152600401611872906151be565b60405180910390fd5b50508080611888906151de565b9150506116af565b506000600c60006101000a81548160ff02191690831515021790555060005b8989905081101561190d578989828181106118cd576118cc61493b565b5b90506020020160208101906118e2919061496a565b67ffffffffffffffff166001901b600e5417600e81905550808061190590614a24565b9150506118af565b50888890506011819055507fe3fe85a8e671fa8d296063ccea9fe5009f7b79a1d7fcffa22a915f4272146ddd600e548a8a60405161194d939291906152cd565b60405180910390a1505050505050505050565b6000600560008473ffffffffffffffffffffffffffffffffffffffff1673ffffffffffffffffffffffffffffffffffffffff16815260200190815260200160002060008373ffffffffffffffffffffffffffffffffffffffff1673ffffffffffffffffffffffffffffffffffffffff16815260200190815260200160002060009054906101000a900460ff16905092915050565b60115481565b600a8181548110611a0a57600080fd5b906000526020600020016000915054906101000a900473ffffffffffffffffffffffffffffffffffffffff1681565b611a41612631565b600073ffffffffffffffffffffffffffffffffffffffff168173ffffffffffffffffffffffffffffffffffffffff1603611ab35760006040517f1e4fbdf7000000000000000000000000000000000000000000000000000000008152600401611aaa9190613a32565b60405180910390fd5b611abc816126b8565b50565b600e5481565b611acd612631565b8181600b9182611ade9291906154b6565b506001600c60006101000a81548160ff02191690831515021790555060006010819055506000600f819055506000600e8190555060006011819055507f1f556c47ef833f41af05b822cddab262cddc521e769940094597b9cd425b4535600b604051611b4a919061560a565b60405180910390a15050565b60007f80ac58cd000000000000000000000000000000000000000000000000000000007bffffffffffffffffffffffffffffffffffffffffffffffffffffffff1916827bffffffffffffffffffffffffffffffffffffffffffffffffffffffff19161480611c2157507f5b5e139f000000000000000000000000000000000000000000000000000000007bffffffffffffffffffffffffffffffffffffffffffffffffffffffff1916827bffffffffffffffffffffffffffffffffffffffffffffffffffffffff1916145b80611c315750611c3082612c27565b5b9050919050565b600080611c4483612c91565b9050600073ffffffffffffffffffffffffffffffffffffffff168173ffffffffffffffffffffffffffffffffffffffff1603611cb757826040517f7e273289000000000000000000000000000000000000000000000000000000008152600401611cae9190613cba565b60405180910390fd5b80915050919050565b60006004600083815260200190815260200160002060009054906101000a900473ffffffffffffffffffffffffffffffffffffffff169050919050565b600033905090565b611d128383836001612cce565b505050565b606060008290506000815167ffffffffffffffff811115611d3b57611d3a613fc2565b5b6040519080825280601f01601f191660200182016040528015611d6d5781602001600182028036833780820191505090505b50905060005b8251811015611ec4576041838281518110611d9157611d9061493b565b5b602001015160f81c60f81b60f81c60ff1610158015611dd45750605a838281518110611dc057611dbf61493b565b5b602001015160f81c60f81b60f81c60ff1611155b15611e50576020838281518110611dee57611ded61493b565b5b602001015160f81c60f81b60f81c611e06919061562c565b60f81b828281518110611e1c57611e1b61493b565b5b60200101907effffffffffffffffffffffffffffffffffffffffffffffffffffffffffffff1916908160001a905350611eb1565b828181518110611e6357611e6261493b565b5b602001015160f81c60f81b828281518110611e8157611e8061493b565b5b60200101907effffffffffffffffffffffffffffffffffffffffffffffffffffffffffffff1916908160001a9053505b8080611ebc90614a24565b915050611d73565b508092505050919050565b611f6581604051602401611ee3919061396c565b6040516020818303038152906040527f41304fac000000000000000000000000000000000000000000000000000000007bffffffffffffffffffffffffffffffffffffffffffffffffffffffff19166020820180517bffffffffffffffffffffffffffffffffffffffffffffffffffffffff8381831617835250505050612e93565b50565b611ffe81604051602401611f7c9190613cba565b6040516020818303038152906040527ff82c50f1000000000000000000000000000000000000000000000000000000007bffffffffffffffffffffffffffffffffffffffffffffffffffffffff19166020820180517bffffffffffffffffffffffffffffffffffffffffffffffffffffffff8381831617835250505050612e93565b50565b6120978160405160240161201591906156ab565b6040516020818303038152906040527f0be77f56000000000000000000000000000000000000000000000000000000007bffffffffffffffffffffffffffffffffffffffffffffffffffffffff19166020820180517bffffffffffffffffffffffffffffffffffffffffffffffffffffffff8381831617835250505050612e93565b50565b6000806120a684612c91565b9050600073ffffffffffffffffffffffffffffffffffffffff168373ffffffffffffffffffffffffffffffffffffffff16146120e8576120e7818486612ead565b5b600073ffffffffffffffffffffffffffffffffffffffff168173ffffffffffffffffffffffffffffffffffffffff16146121795761212a600085600080612cce565b6001600360008373ffffffffffffffffffffffffffffffffffffffff1673ffffffffffffffffffffffffffffffffffffffff168152602001908152602001600020600082825403925050819055505b600073ffffffffffffffffffffffffffffffffffffffff168573ffffffffffffffffffffffffffffffffffffffff16146121fc576001600360008773ffffffffffffffffffffffffffffffffffffffff1673ffffffffffffffffffffffffffffffffffffffff168152602001908152602001600020600082825401925050819055505b846002600086815260200190815260200160002060006101000a81548173ffffffffffffffffffffffffffffffffffffffff021916908373ffffffffffffffffffffffffffffffffffffffff160217905550838573ffffffffffffffffffffffffffffffffffffffff168273ffffffffffffffffffffffffffffffffffffffff167fddf252ad1be2c89b69c2b068fc378daa952ba7f163c4a11628f55a4df523b3ef60405160405180910390a4809150509392505050565b6000604077ffffffffffffffff0000000000000000000000000000000060001b836fffffffffffffffffffffffffffffffff191616901c7fffffffffffffffff00000000000000000000000000000000000000000000000060001b836fffffffffffffffffffffffffffffffff19161617905060207bffffffff000000000000000000000000ffffffff000000000000000060001b8216901c7fffffffff000000000000000000000000ffffffff00000000000000000000000060001b821617905060107dffff000000000000ffff000000000000ffff000000000000ffff0000000060001b8216901c7fffff000000000000ffff000000000000ffff000000000000ffff00000000000060001b821617905060087eff000000ff000000ff000000ff000000ff000000ff000000ff000000ff000060001b8216901c7fff000000ff000000ff000000ff000000ff000000ff000000ff000000ff00000060001b821617905060087f0f000f000f000f000f000f000f000f000f000f000f000f000f000f000f000f0060001b8216901c60047ff000f000f000f000f000f000f000f000f000f000f000f000f000f000f000f00060001b8316901c17905060077f0f0f0f0f0f0f0f0f0f0f0f0f0f0f0f0f0f0f0f0f0f0f0f0f0f0f0f0f0f0f0f0f60047f06060606060606060606060606060606060606060606060606060606060606068460001c6124c49190614ecc565b901c166124d191906156cd565b8160001c7f30303030303030303030303030303030303030303030303030303030303030306125009190614ecc565b61250a9190614ecc565b60001b9050919050565b600082612522868685612f71565b149050949350505050565b6125c5828260405160240161254392919061570f565b6040516020818303038152906040527f4b5c4277000000000000000000000000000000000000000000000000000000007bffffffffffffffffffffffffffffffffffffffffffffffffffffffff19166020820180517bffffffffffffffffffffffffffffffffffffffffffffffffffffffff8381831617835250505050612e93565b5050565b60008060006041845114612612576040517f08c379a000000000000000000000000000000000000000000000000000000000815260040161260990615792565b60405180910390fd5b6020840151925060408401519150606084015160001a90509193909250565b612639611cfd565b73ffffffffffffffffffffffffffffffffffffffff166126576112d7565b73ffffffffffffffffffffffffffffffffffffffff16146126b65761267a611cfd565b6040517f118cdaa70000000000000000000000000000000000000000000000000000000081526004016126ad9190613a32565b60405180910390fd5b565b6000600760009054906101000a900473ffffffffffffffffffffffffffffffffffffffff16905081600760006101000a81548173ffffffffffffffffffffffffffffffffffffffff021916908373ffffffffffffffffffffffffffffffffffffffff1602179055508173ffffffffffffffffffffffffffffffffffffffff168173ffffffffffffffffffffffffffffffffffffffff167f8be0079c531659141344cd1fd0a4f28419497f9722a3daafe3b4186f6b6457e060405160405180910390a35050565b600080600854905060016008546127959190614ecc565b6008819055506127a58482612fc9565b6127af8184612fe7565b8091505092915050565b600073ffffffffffffffffffffffffffffffffffffffff168273ffffffffffffffffffffffffffffffffffffffff160361282a57816040517f5b08ba180000000000000000000000000000000000000000000000000000000081526004016128219190613a32565b60405180910390fd5b80600560008573ffffffffffffffffffffffffffffffffffffffff1673ffffffffffffffffffffffffffffffffffffffff16815260200190815260200160002060008473ffffffffffffffffffffffffffffffffffffffff1673ffffffffffffffffffffffffffffffffffffffff16815260200190815260200160002060006101000a81548160ff0219169083151502179055508173ffffffffffffffffffffffffffffffffffffffff168373ffffffffffffffffffffffffffffffffffffffff167f17307eab39ab6107e8899845ad3d59bd9653f200f220920489ca2b5937696c318360405161291b91906138c1565b60405180910390a3505050565b60008373ffffffffffffffffffffffffffffffffffffffff163b1115612ad9578273ffffffffffffffffffffffffffffffffffffffff1663150b7a0261296c611cfd565b8685856040518563ffffffff1660e01b815260040161298e94939291906157b2565b6020604051808303816000875af19250505080156129ca57506040513d601f19601f820116820180604052508101906129c79190615813565b60015b612a4e573d80600081146129fa576040519150601f19603f3d011682016040523d82523d6000602084013e6129ff565b606091505b506000815103612a4657836040517f64a0ae92000000000000000000000000000000000000000000000000000000008152600401612a3d9190613a32565b60405180910390fd5b805181602001fd5b63150b7a0260e01b7bffffffffffffffffffffffffffffffffffffffffffffffffffffffff1916817bffffffffffffffffffffffffffffffffffffffffffffffffffffffff191614612ad757836040517f64a0ae92000000000000000000000000000000000000000000000000000000008152600401612ace9190613a32565b60405180910390fd5b505b50505050565b606060405180602001604052806000815250905090565b6060612b0182611c38565b506000612b0c612adf565b90506000815111612b2c5760405180602001604052806000815250612b57565b80612b3684613043565b604051602001612b47929190614f98565b6040516020818303038152906040525b915050919050565b600080600080612b6f8686613111565b925092509250612b7f828261316d565b82935050505092915050565b612c238282604051602401612ba1929190615840565b6040516020818303038152906040527f319af333000000000000000000000000000000000000000000000000000000007bffffffffffffffffffffffffffffffffffffffffffffffffffffffff19166020820180517bffffffffffffffffffffffffffffffffffffffffffffffffffffffff8381831617835250505050612e93565b5050565b60007f01ffc9a7000000000000000000000000000000000000000000000000000000007bffffffffffffffffffffffffffffffffffffffffffffffffffffffff1916827bffffffffffffffffffffffffffffffffffffffffffffffffffffffff1916149050919050565b60006002600083815260200190815260200160002060009054906101000a900473ffffffffffffffffffffffffffffffffffffffff169050919050565b8080612d075750600073ffffffffffffffffffffffffffffffffffffffff168273ffffffffffffffffffffffffffffffffffffffff1614155b15612e3b576000612d1784611c38565b9050600073ffffffffffffffffffffffffffffffffffffffff168373ffffffffffffffffffffffffffffffffffffffff1614158015612d8257508273ffffffffffffffffffffffffffffffffffffffff168173ffffffffffffffffffffffffffffffffffffffff1614155b8015612d955750612d938184611960565b155b15612dd757826040517fa9fbf51f000000000000000000000000000000000000000000000000000000008152600401612dce9190613a32565b60405180910390fd5b8115612e3957838573ffffffffffffffffffffffffffffffffffffffff168273ffffffffffffffffffffffffffffffffffffffff167f8c5be1e5ebec7d5bd14f71427d1e84f3dd0314c0f7b2291e5b200ac8c7c3b92560405160405180910390a45b505b836004600085815260200190815260200160002060006101000a81548173ffffffffffffffffffffffffffffffffffffffff021916908373ffffffffffffffffffffffffffffffffffffffff16021790555050505050565b612eaa81612ea26132d16132f2565b63ffffffff16565b50565b612eb88383836132fd565b612f6c57600073ffffffffffffffffffffffffffffffffffffffff168373ffffffffffffffffffffffffffffffffffffffff1603612f2d57806040517f7e273289000000000000000000000000000000000000000000000000000000008152600401612f249190613cba565b60405180910390fd5b81816040517f177e802f000000000000000000000000000000000000000000000000000000008152600401612f63929190614f00565b60405180910390fd5b505050565b60008082905060005b85859050811015612fbd57612fa882878784818110612f9c57612f9b61493b565b5b905060200201356133be565b91508080612fb590614a24565b915050612f7a565b50809150509392505050565b612fe38282604051806020016040528060008152506133e9565b5050565b806006600084815260200190815260200160002090816130079190615870565b507ff8e1a15aba9398e019f0b49df1a4fde98ee17ae345cb5f6b5e2c27f5033e8ce7826040516130379190613cba565b60405180910390a15050565b60606000600161305284613405565b01905060008167ffffffffffffffff81111561307157613070613fc2565b5b6040519080825280601f01601f1916602001820160405280156130a35781602001600182028036833780820191505090505b509050600082602001820190505b600115613106578080600190039150507f3031323334353637383961626364656600000000000000000000000000000000600a86061a8153600a85816130fa576130f9615942565b5b049450600085036130b1575b819350505050919050565b600080600060418451036131565760008060006020870151925060408701519150606087015160001a905061314888828585613558565b955095509550505050613166565b60006002855160001b9250925092505b9250925092565b6000600381111561318157613180615971565b5b82600381111561319457613193615971565b5b03156132cd57600160038111156131ae576131ad615971565b5b8260038111156131c1576131c0615971565b5b036131f8576040517ff645eedf00000000000000000000000000000000000000000000000000000000815260040160405180910390fd5b6002600381111561320c5761320b615971565b5b82600381111561321f5761321e615971565b5b03613264578060001c6040517ffce698f700000000000000000000000000000000000000000000000000000000815260040161325b9190613cba565b60405180910390fd5b60038081111561327757613276615971565b5b82600381111561328a57613289615971565b5b036132cc57806040517fd78bce0c0000000000000000000000000000000000000000000000000000000081526004016132c39190613c3d565b60405180910390fd5b5b5050565b60006a636f6e736f6c652e6c6f679050600080835160208501845afa505050565b6137e6819050919050565b60008073ffffffffffffffffffffffffffffffffffffffff168373ffffffffffffffffffffffffffffffffffffffff16141580156133b557508273ffffffffffffffffffffffffffffffffffffffff168473ffffffffffffffffffffffffffffffffffffffff16148061337657506133758484611960565b5b806133b457508273ffffffffffffffffffffffffffffffffffffffff1661339c83611cc0565b73ffffffffffffffffffffffffffffffffffffffff16145b5b90509392505050565b60008183106133d6576133d1828461364c565b6133e1565b6133e0838361364c565b5b905092915050565b6133f38383613663565b6134006000848484612928565b505050565b600080600090507a184f03e93ff9f4daa797ed6e38ed64bf6a1f0100000000000000008310613463577a184f03e93ff9f4daa797ed6e38ed64bf6a1f010000000000000000838161345957613458615942565b5b0492506040810190505b6d04ee2d6d415b85acef810000000083106134a0576d04ee2d6d415b85acef8100000000838161349657613495615942565b5b0492506020810190505b662386f26fc1000083106134cf57662386f26fc1000083816134c5576134c4615942565b5b0492506010810190505b6305f5e10083106134f8576305f5e10083816134ee576134ed615942565b5b0492506008810190505b612710831061351d57612710838161351357613512615942565b5b0492506004810190505b60648310613540576064838161353657613535615942565b5b0492506002810190505b600a831061354f576001810190505b80915050919050565b60008060007f7fffffffffffffffffffffffffffffff5d576e7357a4501ddfe92f46681b20a08460001c1115613598576000600385925092509250613642565b6000600188888888604051600081526020016040526040516135bd9493929190614cc0565b6020604051602081039080840390855afa1580156135df573d6000803e3d6000fd5b505050602060405103519050600073ffffffffffffffffffffffffffffffffffffffff168173ffffffffffffffffffffffffffffffffffffffff160361363357600060016000801b93509350935050613642565b8060008060001b935093509350505b9450945094915050565b600082600052816020526040600020905092915050565b600073ffffffffffffffffffffffffffffffffffffffff168273ffffffffffffffffffffffffffffffffffffffff16036136d55760006040517f64a0ae920000000000000000000000000000000000000000000000000000000081526004016136cc9190613a32565b60405180910390fd5b60006136e38383600061209a565b9050600073ffffffffffffffffffffffffffffffffffffffff168173ffffffffffffffffffffffffffffffffffffffff16146137575760006040517f73c6ac6e00000000000000000000000000000000000000000000000000000000815260040161374e9190613a32565b60405180910390fd5b505050565b8280548282559060005260206000209081019282156137d5579160200282015b828111156137d45782518260006101000a81548173ffffffffffffffffffffffffffffffffffffffff021916908373ffffffffffffffffffffffffffffffffffffffff1602179055509160200191906001019061377c565b5b5090506137e291906137f0565b5090565b6137ee6159a0565b565b5b808211156138095760008160009055506001016137f1565b5090565b6000604051905090565b600080fd5b600080fd5b60007fffffffff0000000000000000000000000000000000000000000000000000000082169050919050565b61385681613821565b811461386157600080fd5b50565b6000813590506138738161384d565b92915050565b60006020828403121561388f5761388e613817565b5b600061389d84828501613864565b91505092915050565b60008115159050919050565b6138bb816138a6565b82525050565b60006020820190506138d660008301846138b2565b92915050565b600081519050919050565b600082825260208201905092915050565b60005b838110156139165780820151818401526020810190506138fb565b60008484015250505050565b6000601f19601f8301169050919050565b600061393e826138dc565b61394881856138e7565b93506139588185602086016138f8565b61396181613922565b840191505092915050565b600060208201905081810360008301526139868184613933565b905092915050565b6000819050919050565b6139a18161398e565b81146139ac57600080fd5b50565b6000813590506139be81613998565b92915050565b6000602082840312156139da576139d9613817565b5b60006139e8848285016139af565b91505092915050565b600073ffffffffffffffffffffffffffffffffffffffff82169050919050565b6000613a1c826139f1565b9050919050565b613a2c81613a11565b82525050565b6000602082019050613a476000830184613a23565b92915050565b613a5681613a11565b8114613a6157600080fd5b50565b600081359050613a7381613a4d565b92915050565b60008060408385031215613a9057613a8f613817565b5b6000613a9e85828601613a64565b9250506020613aaf858286016139af565b9150509250929050565b600080fd5b600080fd5b600080fd5b60008083601f840112613ade57613add613ab9565b5b8235905067ffffffffffffffff811115613afb57613afa613abe565b5b602083019150836020820283011115613b1757613b16613ac3565b5b9250929050565b600067ffffffffffffffff82169050919050565b613b3b81613b1e565b8114613b4657600080fd5b50565b600081359050613b5881613b32565b92915050565b6000819050919050565b613b7181613b5e565b8114613b7c57600080fd5b50565b600081359050613b8e81613b68565b92915050565b60008060008060008060a08789031215613bb157613bb0613817565b5b600087013567ffffffffffffffff811115613bcf57613bce61381c565b5b613bdb89828a01613ac8565b96509650506020613bee89828a01613b49565b9450506040613bff89828a01613b49565b9350506060613c1089828a016139af565b9250506080613c2189828a01613b7f565b9150509295509295509295565b613c3781613b5e565b82525050565b6000602082019050613c526000830184613c2e565b92915050565b600080600060608486031215613c7157613c70613817565b5b6000613c7f86828701613a64565b9350506020613c9086828701613a64565b9250506040613ca1868287016139af565b9150509250925092565b613cb48161398e565b82525050565b6000602082019050613ccf6000830184613cab565b92915050565b60007fffffffffffffffffffffffffffffffffffffffffff000000000000000000000082169050919050565b613d0a81613cd5565b82525050565b6000602082019050613d256000830184613d01565b92915050565b600060208284031215613d4157613d40613817565b5b6000613d4f84828501613b7f565b91505092915050565b60008083601f840112613d6e57613d6d613ab9565b5b8235905067ffffffffffffffff811115613d8b57613d8a613abe565b5b602083019150836001820283011115613da757613da6613ac3565b5b9250929050565b60008083601f840112613dc457613dc3613ab9565b5b8235905067ffffffffffffffff811115613de157613de0613abe565b5b602083019150836020820283011115613dfd57613dfc613ac3565b5b9250929050565b60008060008060008060808789031215613e2157613e20613817565b5b600087013567ffffffffffffffff811115613e3f57613e3e61381c565b5b613e4b89828a01613d58565b96509650506020613e5e89828a016139af565b9450506040613e6f89828a01613b7f565b935050606087013567ffffffffffffffff811115613e9057613e8f61381c565b5b613e9c89828a01613dae565b92509250509295509295509295565b60008083601f840112613ec157613ec0613ab9565b5b8235905067ffffffffffffffff811115613ede57613edd613abe565b5b602083019150836001820283011115613efa57613ef9613ac3565b5b9250929050565b600080600080600060608688031215613f1d57613f1c613817565b5b6000613f2b88828901613a64565b955050602086013567ffffffffffffffff811115613f4c57613f4b61381c565b5b613f5888828901613eab565b9450945050604086013567ffffffffffffffff811115613f7b57613f7a61381c565b5b613f8788828901613d58565b92509250509295509295909350565b613f9f81613cd5565b8114613faa57600080fd5b50565b600081359050613fbc81613f96565b92915050565b7f4e487b7100000000000000000000000000000000000000000000000000000000600052604160045260246000fd5b613ffa82613922565b810181811067ffffffffffffffff8211171561401957614018613fc2565b5b80604052505050565b600061402c61380d565b90506140388282613ff1565b919050565b600067ffffffffffffffff82111561405857614057613fc2565b5b602082029050602081019050919050565b600061407c6140778461403d565b614022565b9050808382526020820190506020840283018581111561409f5761409e613ac3565b5b835b818110156140c857806140b48882613a64565b8452602084019350506020810190506140a1565b5050509392505050565b600082601f8301126140e7576140e6613ab9565b5b81356140f7848260208601614069565b91505092915050565b6000806040838503121561411757614116613817565b5b600061412585828601613fad565b925050602083013567ffffffffffffffff8111156141465761414561381c565b5b614152858286016140d2565b9150509250929050565b60006020828403121561417257614171613817565b5b600061418084828501613a64565b91505092915050565b60008060008060008060008060a0898b0312156141a9576141a8613817565b5b60006141b78b828c016139af565b985050602089013567ffffffffffffffff8111156141d8576141d761381c565b5b6141e48b828c01613d58565b9750975050604089013567ffffffffffffffff8111156142075761420661381c565b5b6142138b828c01613eab565b955095505060606142268b828c01613a64565b935050608089013567ffffffffffffffff8111156142475761424661381c565b5b6142538b828c01613dae565b92509250509295985092959890939650565b61426e816138a6565b811461427957600080fd5b50565b60008135905061428b81614265565b92915050565b600080604083850312156142a8576142a7613817565b5b60006142b685828601613a64565b92505060206142c78582860161427c565b9150509250929050565b600080602083850312156142e8576142e7613817565b5b600083013567ffffffffffffffff8111156143065761430561381c565b5b61431285828601613eab565b92509250509250929050565b600080fd5b600067ffffffffffffffff82111561433e5761433d613fc2565b5b61434782613922565b9050602081019050919050565b82818337600083830152505050565b600061437661437184614323565b614022565b9050828152602081018484840111156143925761439161431e565b5b61439d848285614354565b509392505050565b600082601f8301126143ba576143b9613ab9565b5b81356143ca848260208601614363565b91505092915050565b600080604083850312156143ea576143e9613817565b5b600083013567ffffffffffffffff8111156144085761440761381c565b5b614414858286016143a5565b925050602083013567ffffffffffffffff8111156144355761443461381c565b5b614441858286016143a5565b9150509250929050565b600067ffffffffffffffff82111561446657614465613fc2565b5b61446f82613922565b9050602081019050919050565b600061448f61448a8461444b565b614022565b9050828152602081018484840111156144ab576144aa61431e565b5b6144b6848285614354565b509392505050565b600082601f8301126144d3576144d2613ab9565b5b81356144e384826020860161447c565b91505092915050565b6000806000806080858703121561450657614505613817565b5b600061451487828801613a64565b945050602061452587828801613a64565b9350506040614536878288016139af565b925050606085013567ffffffffffffffff8111156145575761455661381c565b5b614563878288016144be565b91505092959194509250565b60008083601f84011261458557614584613ab9565b5b8235905067ffffffffffffffff8111156145a2576145a1613abe565b5b6020830191508360208202830111156145be576145bd613ac3565b5b9250929050565b60008060008060008060008060c0898b0312156145e5576145e4613817565b5b600089013567ffffffffffffffff8111156146035761460261381c565b5b61460f8b828c01613ac8565b985098505060206146228b828c01613b49565b96505060406146338b828c01613b49565b95505060606146448b828c016139af565b945050608089013567ffffffffffffffff8111156146655761466461381c565b5b6146718b828c0161456f565b935093505060a06146848b828c01613b7f565b9150509295985092959890939650565b600080604083850312156146ab576146aa613817565b5b60006146b985828601613a64565b92505060206146ca85828601613a64565b9150509250929050565b7f4e487b7100000000000000000000000000000000000000000000000000000000600052602260045260246000fd5b6000600282049050600182168061471b57607f821691505b60208210810361472e5761472d6146d4565b5b50919050565b6000819050919050565b61474f61474a82613b5e565b614734565b82525050565b6000819050919050565b61477061476b8261398e565b614755565b82525050565b6000614782828761473e565b602082019150614792828661475f565b6020820191506147a2828561475f565b6020820191506147b2828461475f565b60208201915081905095945050505050565b600081519050919050565b600081905092915050565b60006147e5826147c4565b6147ef81856147cf565b93506147ff8185602086016138f8565b80840191505092915050565b600081905092915050565b7f5a4b5f5245414c5f4154544553544154494f4e00000000000000000000000000600082015250565b600061484c60138361480b565b915061485782614816565b601382019050919050565b600061486e82846147da565b91506148798261483f565b915081905092915050565b6000819050919050565b61489f61489a82613cd5565b614884565b82525050565b60006148b182856147da565b91506148bd828461488e565b6015820191508190509392505050565b600063ffffffff82169050919050565b60008160e01b9050919050565b60006148f5826148dd565b9050919050565b61490d614908826148cd565b6148ea565b82525050565b600061491f82856147da565b915061492b82846148fc565b6004820191508190509392505050565b7f4e487b7100000000000000000000000000000000000000000000000000000000600052603260045260246000fd5b6000602082840312156149805761497f613817565b5b600061498e84828501613b49565b91505092915050565b60008160c01b9050919050565b60006149af82614997565b9050919050565b6149c76149c282613b1e565b6149a4565b82525050565b60006149d982856147da565b91506149e582846149b6565b6008820191508190509392505050565b7f4e487b7100000000000000000000000000000000000000000000000000000000600052601160045260246000fd5b6000614a2f8261398e565b91507fffffffffffffffffffffffffffffffffffffffffffffffffffffffffffffffff8203614a6157614a606149f5565b5b600182019050919050565b6000614a77826138dc565b614a81818561480b565b9350614a918185602086016138f8565b80840191505092915050565b6000614aa982856147da565b9150614ab58284614a6c565b91508190509392505050565b6000614acd82846147da565b915081905092915050565b600081519050614ae781613b68565b92915050565b600060208284031215614b0357614b02613817565b5b6000614b1184828501614ad8565b91505092915050565b6000606082019050614b2f6000830186613a23565b614b3c6020830185613cab565b614b496040830184613a23565b949350505050565b6000614b5d828561473e565b602082019150614b6d828461473e565b6020820191508190509392505050565b7f4d65726b6c6520726f6f74206e6f742070726573656e74000000000000000000600082015250565b6000614bb36017836138e7565b9150614bbe82614b7d565b602082019050919050565b60006020820190508181036000830152614be281614ba6565b9050919050565b6000614bf583856147cf565b9350614c02838584614354565b82840190509392505050565b6000614c1b828587614be9565b9150614c27828461475f565b602082019150819050949350505050565b7f496e76616c69642070726f6f662e000000000000000000000000000000000000600082015250565b6000614c6e600e836138e7565b9150614c7982614c38565b602082019050919050565b60006020820190508181036000830152614c9d81614c61565b9050919050565b600060ff82169050919050565b614cba81614ca4565b82525050565b6000608082019050614cd56000830187613c2e565b614ce26020830186614cb1565b614cef6040830185613c2e565b614cfc6060830184613c2e565b95945050505050565b7f3078000000000000000000000000000000000000000000000000000000000000600082015250565b6000614d3b60028361480b565b9150614d4682614d05565b600282019050919050565b6000614d5c82614d2e565b9150614d68828561473e565b602082019150614d78828461473e565b6020820191508190509392505050565b7f4e6f7420612077696e6e65720000000000000000000000000000000000000000600082015250565b6000614dbe600c836138e7565b9150614dc982614d88565b602082019050919050565b60006020820190508181036000830152614ded81614db1565b9050919050565b7f416c7265616479206d696e746564000000000000000000000000000000000000600082015250565b6000614e2a600e836138e7565b9150614e3582614df4565b602082019050919050565b60006020820190508181036000830152614e5981614e1d565b9050919050565b7f496e76616c6964207369676e6174757265000000000000000000000000000000600082015250565b6000614e966011836138e7565b9150614ea182614e60565b602082019050919050565b60006020820190508181036000830152614ec581614e89565b9050919050565b6000614ed78261398e565b9150614ee28361398e565b9250828201905080821115614efa57614ef96149f5565b5b92915050565b6000604082019050614f156000830185613a23565b614f226020830184613cab565b9392505050565b6000614f35838561480b565b9350614f42838584614354565b82840190509392505050565b6000614f5b828486614f29565b91508190509392505050565b6000614f7382866147da565b9150614f7f8285614a6c565b9150614f8b8284614a6c565b9150819050949350505050565b6000614fa48285614a6c565b9150614fb08284614a6c565b91508190509392505050565b7f526166666c65206973206e6f7420737461727465640000000000000000000000600082015250565b6000614ff26015836138e7565b9150614ffd82614fbc565b602082019050919050565b6000602082019050818103600083015261502181614fe5565b9050919050565b7f4d696e2076616c75652073686f756c6420626520300000000000000000000000600082015250565b600061505e6015836138e7565b915061506982615028565b602082019050919050565b6000602082019050818103600083015261508d81615051565b9050919050565b7f4e6f7420656e6f756768207369676e6174757265730000000000000000000000600082015250565b60006150ca6015836138e7565b91506150d582615094565b602082019050919050565b600060208201905081810360008301526150f9816150bd565b9050919050565b600080fd5b600080fd5b600080fd5b6000808335600160200384360303811261512c5761512b615100565b5b80840192508235915067ffffffffffffffff82111561514e5761514d615105565b5b60208301925060018202360383131561516a5761516961510a565b5b509250929050565b7f436f756c64206e6f7420766572696679207369676e6174757265000000000000600082015250565b60006151a8601a836138e7565b91506151b382615172565b602082019050919050565b600060208201905081810360008301526151d78161519b565b9050919050565b60006151e9826148cd565b915063ffffffff82036151ff576151fe6149f5565b5b600182019050919050565b600082825260208201905092915050565b6000819050919050565b61522e81613b1e565b82525050565b60006152408383615225565b60208301905092915050565b600061525b6020840184613b49565b905092915050565b6000602082019050919050565b600061527c838561520a565b93506152878261521b565b8060005b858110156152c05761529d828461524c565b6152a78882615234565b97506152b283615263565b92505060018101905061528b565b5085925050509392505050565b60006040820190506152e26000830186613cab565b81810360208301526152f5818486615270565b9050949350505050565b600082905092915050565b60008190508160005260206000209050919050565b60006020601f8301049050919050565b600082821b905092915050565b60006008830261536c7fffffffffffffffffffffffffffffffffffffffffffffffffffffffffffffffff8261532f565b615376868361532f565b95508019841693508086168417925050509392505050565b6000819050919050565b60006153b36153ae6153a98461398e565b61538e565b61398e565b9050919050565b6000819050919050565b6153cd83615398565b6153e16153d9826153ba565b84845461533c565b825550505050565b600090565b6153f66153e9565b6154018184846153c4565b505050565b5b818110156154255761541a6000826153ee565b600181019050615407565b5050565b601f82111561546a5761543b8161530a565b6154448461531f565b81016020851015615453578190505b61546761545f8561531f565b830182615406565b50505b505050565b600082821c905092915050565b600061548d6000198460080261546f565b1980831691505092915050565b60006154a6838361547c565b9150826002028217905092915050565b6154c083836152ff565b67ffffffffffffffff8111156154d9576154d8613fc2565b5b6154e38254614703565b6154ee828285615429565b6000601f83116001811461551d576000841561550b578287013590505b615515858261549a565b86555061557d565b601f19841661552b8661530a565b60005b828110156155535784890135825560018201915060208501945060208101905061552e565b86831015615570578489013561556c601f89168261547c565b8355505b6001600288020188555050505b50505050505050565b6000815461559381614703565b61559d81866138e7565b945060018216600081146155b857600181146155ce57615601565b60ff198316865281151560200286019350615601565b6155d78561530a565b60005b838110156155f9578154818901526001820191506020810190506155da565b808801955050505b50505092915050565b600060208201905081810360008301526156248184615586565b905092915050565b600061563782614ca4565b915061564283614ca4565b9250828201905060ff81111561565b5761565a6149f5565b5b92915050565b600082825260208201905092915050565b600061567d826147c4565b6156878185615661565b93506156978185602086016138f8565b6156a081613922565b840191505092915050565b600060208201905081810360008301526156c58184615672565b905092915050565b60006156d88261398e565b91506156e38361398e565b92508282026156f18161398e565b91508282048414831517615708576157076149f5565b5b5092915050565b600060408201905081810360008301526157298185613933565b9050818103602083015261573d8184613933565b90509392505050565b7f696e76616c6964207369676e6174757265206c656e6774680000000000000000600082015250565b600061577c6018836138e7565b915061578782615746565b602082019050919050565b600060208201905081810360008301526157ab8161576f565b9050919050565b60006080820190506157c76000830187613a23565b6157d46020830186613a23565b6157e16040830185613cab565b81810360608301526157f38184615672565b905095945050505050565b60008151905061580d8161384d565b92915050565b60006020828403121561582957615828613817565b5b6000615837848285016157fe565b91505092915050565b6000604082019050818103600083015261585a8185613933565b90506158696020830184613a23565b9392505050565b615879826138dc565b67ffffffffffffffff81111561589257615891613fc2565b5b61589c8254614703565b6158a7828285615429565b600060209050601f8311600181146158da57600084156158c8578287015190505b6158d2858261549a565b86555061593a565b601f1984166158e88661530a565b60005b82811015615910578489015182556001820191506020850194506020810190506158eb565b8683101561592d5784890151615929601f89168261547c565b8355505b6001600288020188555050505b505050505050565b7f4e487b7100000000000000000000000000000000000000000000000000000000600052601260045260246000fd5b7f4e487b7100000000000000000000000000000000000000000000000000000000600052602160045260246000fd5b7f4e487b7100000000000000000000000000000000000000000000000000000000600052605160045260246000fdfea2646970667358221220dbf0fc89752c82a3c1eb9ac53f89cd076178c08bda7df41741b2f59f112f311d64736f6c63430008140033",
  "linkReferences": {},
  "deployedLinkReferences": {}
}